:020000040800F2
:10000000D806002031020008F51C0008F71C000883
:10001000F91C0008FB1C0008FD1C00080000000083
:10002000000000000000000000000000FF1C0008AD
:10003000011D000800000000031D0008071D000846
:100040004B0200084B0200084B0200084B0200085C
:100050004B0200084B0200084B0200084B0200084C
:100060004B0200084B0200084B0200084B0200083C
:100070004B0200084B0200084B0200084B0200082C
:100080004B0200084B0200084B0200084B0200081C
:100090004B0200084B0200084B0200084B0200080C
:1000A0004B0200084B0200084B0200084B020008FC
:1000B0004B0200084B0200084B0200084B020008EC
:1000C0004B0200084B0200084B0200084B020008DC
:1000D0004B0200084B0200084B0200084B020008CC
:1000E0004B0200084B0200084B0200084B020008BC
:1000F0004B0200084B0200084B0200084B020008AC
:100100004B0200084B0200084B0200084B0200089B
:100110004B0200084B0200084B0200084B0200088B
:100120004B0200084B0200084B0200084B0200087B
:100130004B0200084B0200084B0200084B0200086B
:100140004B0200084B0200084B0200084B0200085B
:100150004B0200084B0200084B0200084B0200084B
:100160004B0200084B0200084B0200084B0200083B
:100170004B0200084B0200084B0200084B0200082B
:100180004B0200084B02000800F002F800F040F8B3
:100190000AA090E8000C82448344AAF10107DA45E2
:1001A00001D100F035F8AFF2090EBAE80F0013F0F4
:1001B000010F18BFFB1A43F001031847881F000006
:1001C000A81F0000103A24BF78C878C1FAD8520797
:1001D00024BF30C830C144BF04680C6070470000C1
:1001E0000023002400250026103A28BF78C1FBD840
:1001F000520728BF30C148BF0B6070471FB501F0E0
:100200009BFF9DE8030001F0B9FE1FBD10B510BDB6
:1002100001F010FF1146FFF7F1FF01F073FC01F050
:100220002EFF03B4FFF7F2FF03BC01F05FFF0000F5
:100230000948804709480047FEE7FEE7FEE7FEE77A
:10024000FEE7FEE7FEE7FEE7FEE7FEE704480549B6
:10025000054A064B70470000B31D000889010008DD
:10026000D8000020D8060020D8020020D8020020A4
:10027000F848016841F001010160F64A00210832A6
:1002800011600268F44B1A400260031DF34A1A60C1
:10029000F04BF34A84331A60F04A103A1B1D1A607F
:1002A000026822F480220260EA480C300160181DC6
:1002B00001607047E7490022891C0A700870704786
:1002C00002460020510901290CD002290CD0E14935
:1002D0007431096802F01F02012393400B4200D0E1
:1002E00001207047DB49F4E7DA497031F1E718B5CE
:1002F00000204FF4A04400903120FFF7E1FF009967
:10030000491C0091A14201D00028F5D03120FFF70F
:10031000D7FF002800D0012018BDCE4A116821F077
:10032000F80141EAC00010607047CE49086070478C
:10033000C849002270310A700A70012802D00428CE
:1003400001D1052008707047C7490860704741EA2D
:1003500082115A0810B5C54B029C03EB02421143AF
:10036000014341EA0460BB49091D086010BDBD4955
:1003700008667047800140EA0170B6498431086020
:100380007047B84988667047800140EA0160B1490A
:1003900040EA0270883108607047B24908677047C8
:1003A000B049C8647047AB4B08331A68084322F061
:1003B000EC62104318607047A64B08331A68084374
:1003C00022F07842104318607047A24A0832116840
:1003D00021F003010143116070479E480830006816
:1003E00000F00C0070479B4A0832116821F0F001C0
:1003F000014311607047974A0832116821F4E051B7
:10040000014311607047934A0832116821F460413A
:1004100041EAC0001060704770B58E4B0833196810
:10042000934C11F00C0104D0924E042903D00829FA
:1004300003D004601BE0066019E0864A121D1168B3
:10044000C1F38055116801F03F0115B1B6FBF1F120
:1004500001E0B4FBF1F114681268C4F3881461433D
:10046000C2F30142521C5200B1FBF2F10160196863
:100470000F2202EA1111804A545C0168E140416098
:100480001C68072505EA9424145D21FA04F48460AD
:100490001B6805EA5333D25CD140C16070BDC0F324
:1004A0000121032908D16B4B08331968734A21F4E1
:1004B000F81102400A431A60664970310A68C0F3B5
:1004C0000B0002430A60704767494439086070476F
:1004D00065494039086070476249C1F85C0170475E
:1004E0005C4A8C32116821F440110143116070475D
:1004F000584A8C32116821F4400101431160704761
:10050000544A8C321168401E21F01F0101431160D2
:100510007047504A8C3211686FF0FF0321F4F85194
:1005200003EB00200843106070474A4A8C32116880
:1005300021F440310143116070475149C1F8E00195
:100540007047444A30320029116801D0014300E06D
:100550008143116070473F4A34320029116801D04D
:10056000014300E08143116070473A4A3832002964
:10057000116801D0014300E0814311607047354AA2
:1005800040320029116801D0014300E0814311602D
:100590007047304A44320029116801D0014300E01D
:1005A0008143116070472B4A10320029116801D035
:1005B000014300E0814311607047264A143200294C
:1005C000116801D0014300E0814311607047214A66
:1005D00018320029116801D0014300E08143116005
:1005E00070471C4A20320029116801D0014300E005
:1005F000814311607047174A24320029116801D0E5
:10060000014300E0814311607047124A50320029D3
:10061000116801D0014300E08143116070470D4A29
:1006200054320029116801D0014300E08143116078
:100630007047084A58320029116801D0014300E090
:10064000814311607047034A60320029116819D054
:10065000014318E000380240FFFFF6EA10300024A2
:100660000030002000004742800E47420000FFFF9C
:100670000024F40040787D0100000020FFFCFF0F03
:1006800000104742814311607047194A00291168E0
:1006900001D0014300E081431160704714490C31DF
:1006A0000128086803D020F008000860704740F077
:1006B0000800FAE70E4A573A0029117801D00143A1
:1006C00000E081431170704709481030016841F023
:1006D0008071016070470146054A0020583A12684F
:1006E0000A4200D00120704701495639087070470E
:1006F00064380240774910B5884206D10121084686
:10070000FFF751FF002101205BE07349884206D1C9
:1007100001210220FFF747FF0021022051E06F492D
:10072000884206D101210420FFF73DFF002104206B
:1007300047E06B49884206D101210820FFF733FFCB
:10074000002108203DE06749884206D101211020A0
:10075000FFF729FF0021102033E06349884206D1CA
:1007600001212020FFF71FFF0021202029E05F4901
:10077000884206D101214020FFF715FF00214020CB
:100780001FE05B49884206D101218020FFF70BFF63
:100790000021802015E05749884202D101218415AB
:1007A0000AE05549884202D10121441504E0534929
:1007B00088420AD1012104152046FFF7F4FE0021EA
:1007C0002046BDE81040FFF7EEBE10BDF0B5002298
:1007D00001274FF0030C0B6807FA02F52B40AB42E0
:1007E0002CD1066853000CFA03F4A64306600E7978
:1007F000D0F800E09E4046EA0E0606600E79012E13
:1008000001D0022E12D18668A64386604E79D0F8B8
:1008100008E09E4046EA0E0686604668AE434660A3
:1008200045688E799640B6B235434560C568A543A4
:10083000C560CC799C40C3681C43C460521C102A1C
:10084000C9D3F0BD4FF6FF71016000210171417104
:100850008171C171704708B541F480320092C26164
:10086000C1610099C161C169C069009008BD0246BB
:10087000002012690A4200D001207047006980B24E
:1008800070470246002052690A4200D0012070479A
:10089000406980B2704701837047418370470AB155
:1008A00001837047418370474161704742694A4004
:1008B000426170474B07DB0E9A40C90810B500EB48
:1008C0008100016A0F249C40A1430162016A114327
:1008D000016210BD00000240000402400008024016
:1008E000000C0240001002400014024000180240B8
:1008F000001C024000200240002402400028024068
:10090000C14910B5884202D10121841424E0BF49B5
:10091000884202D10121041404E0BD4988420AD171
:100920000121C4132046FFF75CFE2046BDE81040BD
:100930000021FFF756BEB749884202D10121441475
:100940000AE0B549884202D101210C0504E0B3490F
:1009500088420AD101214C052046FFF74CFE204673
:10096000BDE810400021FFF746BE10BD30B502883B
:100970004C8802F441530A88CD8822438C882C434A
:1009800022430C8922434C8922438C892243CC89FF
:1009900022431A430280828B22F400628283098AF6
:1009A000018230BDF0B502220023858B01244FF275
:1009B0004006354085830284868B8D68022D3DD0AC
:1009C0008A8802B10224964A13681B0203D5136871
:1009D00023F400031360924A7C3213681268C3F355
:1009E00088138F4FC2F302723F1F3D683F6805F0C6
:1009F0003F057F0201D58B4F00E08B4FB7FBF5F52C
:100A00005D43B5FBF2F2CB88B3F5007F2BD06301D9
:100A1000B2FBF3F202EB82028B685200B2FBF3F2FC
:100A2000521D92B20A23B2FBF3F202F00103D21A72
:100A30004FF6FF74C2F34F0204EA0323941EFE2C08
:100A400001D302220023CC881A43144304840A8869
:100A50004B881A438B8889890B431A43324342F4EB
:100A600000618183F0BD120AD4E70021018041803A
:100A70008180C180018141818181C1810721018201
:100A800070470021018041808180C1800222826004
:100A9000818170470029018802D041F0400101E0C6
:100AA00021F04001018070470029818B02D041F480
:100AB000806101E021F4806181837047028822F423
:100AC0000062028002880A4302807047B1F5804FBD
:100AD000018803D021F480410180704741F48041B6
:100AE000FAE7A1F57E420188FF3A02D041F4807115
:100AF00001E021F48071018070470029818802D0D3
:100B000041F0040101E021F00401818070470029D7
:100B1000818802D041F0100101E021F010018180B4
:100B2000704730B5828B00234FF24004224082830D
:100B300002220284848B0A884FF48075B2F5007F0C
:100B400000D002B92B464A888D8889892A431943E7
:100B50000A43224342F40061818330BD808970479B
:100B6000818170470029018802D041F4005101E0E1
:100B700021F4005101807047018841F480510180C7
:100B80007047012901D0008B7047808A7047008A26
:100B90007047002A828801D00A4300E08A4382809D
:100BA0007047090901238B40002A828899B201D03D
:100BB0000A4300E08A43828070470246002012897F
:100BC0000A4200D001207047C9430181704730B507
:100BD00001F00F030125024605FA03F40020A3B239
:100BE000090905FA01F49188A4B2128921401A4238
:100BF00002D0002900D0012030BD01F00F020121F8
:100C00009140C943018170470030014000380040E5
:100C1000003C0040003401400050014000540140BD
:100C20000838024040787D010024F40070B55A482D
:100C30004168491C4160816811B18168491E816029
:100C4000AFF300800024554E18E006EB8405686879
:100C500090B1017B81B1826872B1521E8260696875
:100C60000AD14869096988476868016881606868CD
:100C7000416809B900210173641CE4B23078A042D4
:100C8000E3D870BD464801684FF47A70B1FBF0F0CC
:100C9000401EB0F1807F12D24FF0E0225061414BF4
:100CA000F02083F8140D00209061072010613E4869
:100CB000B1FBF0F13848C160012101707047FEE7D7
:100CC00035480078002805D04FF0E020016941F058
:100CD0000201016170474FF0E020016921F002013B
:100CE000016170472DE9F0472C4C0546DDF8209056
:100CF00020781E4617468846052802D30020BDE806
:100D0000F087182001F0C4F80028F8D00560C0E989
:100D100001850773C0E90469217804EB810148600B
:100D20002178491C2170EAE71C4B30B400211A7865
:100D300006E003EB81046468844203D0491CC9B215
:100D40008A42F6D88A4218D003EB81004068EFF35C
:100D5000108472B605E003EB8102491C9568C9B2A4
:100D600055601A78521E8A42F5DC1978491E1970AE
:100D700004B962B630BC01F0BAB830BC704700218B
:100D800001737047012101737047016881607047EA
:100D9000416070470160704710000020480000204B
:100DA000340000200FE000E0C0C62D001CB500207C
:100DB0000321CDE9000103464FF47044012221468E
:100DC000184800F0A1FD17481A3004801CBD1CB55E
:100DD00000210220CDE900010B460A4601211248FC
:100DE00000F092FD1CBD10480069C1070F4805D0F6
:100DF000017829B90121017008467047002101706E
:100E00000020704708480069C107084803D0012145
:100E100001700020704701780029FAD0002101708C
:100E200001207047000C024000000240200000201A
:100E300070471CB530B1032803D10521FE48FFF7E8
:100E4000F7FF1CBD05210320CDE9000100231A4650
:100E50004FF4E041F94800F068FD1CBD7CB5052564
:100E6000F74E032440B101280CD0032803D10521FB
:100E7000F448FFF7DDFF7CBD00231A464FF4607194
:100E800030460CE000231A464FF400613046CDE9AD
:100E9000004500F04AFD0023EB481A46C021CDE989
:100EA000004500F042FD7CBD1CB50522E74C032146
:100EB00040B101280CD0032803D10521E448FFF7F5
:100EC000B7FF1CBDCDE9001200231A46642105E0DE
:100ED000CDE9001200231A464FF4E041204600F00D
:100EE00024FD1CBD1CB50622032140B101280DD0F4
:100EF000032803D10621D748FFF79AFF1CBDCDE98F
:100F0000001200231A463821D34806E0CDE900122A
:100F100000231A464FF4E051D04800F006FD1CBDF6
:100F20007CB50525CC4E032450B1012816D00228EB
:100F30001AD0032803D10521C948FFF779FF7CBDEA
:100F400000231A464FF480613046CDE9004500F099
:100F5000ECFC00231A460C21C04809E000231A4685
:100F60004FF46041304603E00023BE481A460D218D
:100F7000CDE9004500F0D9FC7CBD1CB5052203215C
:100F800040B101280DD0032803D10521B648FFF751
:100F90004FFF1CBDCDE9001200231A46E021B348E3
:100FA00005E0CDE9001200231A463821AA4800F0D6
:100FB000BCFC1CBD2DE9FF4F85B00446DDE912BA2B
:100FC000994616466846FFF750FDA748A84F0025EA
:100FD000844208D1386840F4805038600698FFF7A2
:100FE000CCFFADF804509E48DFF884828442A8F11B
:100FF00004080AD1D8F8001041F48041C8F8001064
:101000000698FFF78DFFADF80450924884420AD14C
:10101000D8F8001041F40041C8F800100698FFF716
:1010200061FFADF804508A48844208D1386840F422
:10103000005038600698FFF737FFADF8045081483C
:10104000844208D1386840F4801038600698FFF771
:1010500005FFADF804507848844208D1386840F460
:10106000001038600698FFF7E4FEADF80450ADF8C4
:101070000C90ADF800504FF40070ADF80EA0ADF834
:1010800002B0ADF80A0046B10121012E08D00220BD
:10109000022E08D0032E0BD00EE0ADF8065004E06F
:1010A000ADF8065006E0ADF80600ADF8085003E0D4
:1010B000ADF80600ADF80810208820F04000208030
:1010C00069462046FFF752FC208840F0400020800F
:1010D00009B0BDE8F08F2DE9FC41044662480025C7
:1010E0000F464FF48276844205D1CDE90065202376
:1010F0000022FFF75FFF5A48844206D1CDE9006520
:10110000202300223946FFF755FF5248844206D17A
:10111000CDE90065202300223946FFF74BFF4C48FC
:10112000844206D1CDE90065202300223946FFF72D
:1011300041FF4448844206D1CDE9006520230022C6
:101140003946FFF737FF3C48844206D1CDE90065B8
:10115000202300223946FFF72DFFBDE8FC812DE951
:10116000FC41044640480025174688464FF48276E5
:10117000844204D1CDE900652023FFF71BFF3848E6
:10118000844206D1CDE9006520233A464146FFF767
:1011900011FF3048844206D1CDE9006520233A464C
:1011A0004146FFF707FF2A48844206D1CDE9006592
:1011B00020233A464146FFF7FDFE2248844206D1ED
:1011C000CDE9006520233A464146FFF7F3FE1A4871
:1011D0008442C2D1CDE9006520233A464146FFF75B
:1011E000E9FEBAE72DE9FC470446DDE90A651E4839
:1011F0001F4690468946844205D1CDE900651346D5
:101200003A46FFF7D7FE1648844206D1CDE900657D
:1012100043463A464946FFF7CDFE0E48844206D182
:10122000CDE9006543463A464946FFF7C3FE084804
:10123000844225D143461DE000540140001802407D
:101240000014024000500140001C02400010024007
:1012500000340140003C004000040240000802400D
:1012600000380040002002400030014000000240F1
:1012700044380240CDE900653A464946FFF79AFEF8
:101280007748844206D1CDE9006543463A4649464F
:10129000FFF790FE7348844206D1CDE900654346CE
:1012A0003A464946FFF786FEBDE8FC877FB50D004C
:1012B000044620D06846FFF7AFF86B48844208D058
:1012C0006A48844205D06648844202D06548844218
:1012D00001D1039900E0029900200124421C04FA84
:1012E00002F3B1FBF3F3AB4202D8C00004B070BD0F
:1012F000D0B20828F2D33820F8E702880388C2F376
:10130000C02223F0400303800129018808D021F482
:1013100000610180018841F0400101801046704762
:1013200041F40061F5E730B50488640614D50489FA
:10133000A407FCD004892406F9D400240AE00D5D3A
:1013400085810589AD07FCD005892D06F9D48589ED
:101350001555641C9C42F2D330BD10B503885B0662
:1013600013D503899B07FCD003891B06F9D40023FE
:1013700009E0CC5C84810489A407FCD0048924069C
:10138000F9D484895B1C9342F3D310BD30B5048833
:10139000640613D50489A407FCD004892406F9D473
:1013A000002409E082810589AD07FCD005892D065E
:1013B000F9D485890D55641C9C42F3D330BD30B5FA
:1013C0000488640616D50489A407FCD00489240681
:1013D000F9D400240CE031F8145085810589AD075B
:1013E000FCD005892D06F9D4858922F81450641C97
:1013F0009C42F0D330BD10B503885B0614D5038939
:101400009B07FCD003891B06F9D400230AE031F8BE
:10141000134084810489A407FCD004892406F9D4EC
:1014200084895B1C9342F2D310BD30B504886406F6
:1014300014D50489A407FCD004892406F9D4002417
:101440000AE082810589AD07FCD005892D06F9D413
:10145000858921F81450641C9C42F2D330BD0000F1
:101460000050014000540140003001400034014070
:101470000288520601D40020704702899207FCD0EE
:1014800002891206F9D4818101898907FCD001897A
:101490000906F9D48089C0B270472DE9F041E84EC1
:1014A000082514468046758341F08001012A01D940
:1014B00041F04001E34F3846FFF7DAFF23460022B0
:1014C00041463846FFF762FF3583BDE8F0812DE9DC
:1014D000FC41DD4F787800281AD10021D948FFF768
:1014E000FAFD01211020FFF72CF801248DF80440AB
:1014F00000208DF80600D24E08258DF80740009593
:101500008DF8054069463046FFF760F935837C70F9
:10151000BDE8FC81CD48401EFDD2704708B5FFF7FD
:10152000F9FFFFF7D4FF01220F216846FFF7B5FF4F
:101530009DF80000C4493B2803D03F2804D0002078
:1015400008BD0120087008BD0220087008BD2DE903
:10155000F041BB4E0825144680467583012A05D903
:10156000B9480078012801D141F04001B54F384613
:10157000FFF77EFF224641463846FFF7EEFE3583F1
:10158000A3E738B5B04A672420B3012825D0022844
:1015900027D0032829D004281BD19FEDAD0A82ED66
:1015A000010A39B1012924D0022925D0032910D1FB
:1015B00044F440448DF80040012220216846FFF7A2
:1015C000C6FF200A8DF80000012224216846FFF79B
:1015D000BEFF38BD9FED9F0AE1E76F249FED9E0A95
:1015E000DDE777249FED9D0AD9E77F249FED9C0AD4
:1015F000D5E744F48044DDE744F40044DAE738B545
:101600000C460546012221216846FFF746FFBDF83A
:101610000000012240F04000ADF8000021216846A2
:10162000FFF795FF4720ADF800008748052D2CD027
:10163000062D29D16721ADF800109FED8A0A0122FD
:1016400080ED010A20216846FFF781FF0122212158
:101650006846FFF77CFFBDF80000042C00F0D000C6
:1016600040F02C00ADF8000009D0052C10D0062C5D
:1016700011D0072C08D140F00300ADF80000012282
:1016800021216846FFF763FF38BDB3EE020AD6E7B3
:1016900040F00100F1E740F00200EEE770B50C46C3
:1016A0000546FFF714FFFFF735FFFFF737FF012867
:1016B00007D0FFF733FF022809D0634900200870E4
:1016C00070BD21462846FFF79AFF012070BD2146D4
:1016D0002846FFF756FF022070BD7CB50546012263
:1016E00028216846FFF7D9FE6C4601222921601C9B
:1016F000FFF7D3FE01222A21A01CFFF7CEFE012214
:101700002B21E01CFFF7C9FE01222C21201DFFF731
:10171000C4FE01222D21601DFFF7BFFE9DF90000D0
:101720009DF8011000EB012000B200EE100A4648BF
:10173000B8EEC00AD0ED010A20EE200ABDEEC00AC4
:1017400010EE101A29809DF902109DF80320D0EDAB
:10175000010A01EB022109B200EE101AB8EEC00A2C
:1017600020EE200ABDEEC00A10EE101A69809DF925
:1017700004109DF80520D0ED010A01EB022109B209
:1017800000EE101AB8EEC00A20EE200ABDEEC00A24
:1017900010EE100AA8807CBD38B50446012229212C
:1017A0006846FFF77AFE6D4601222B21681CFFF781
:1017B00074FE01222D21A81CFFF76FFE9DF9000089
:1017C000214900EE100AD1ED010AB8EEC00A20EE60
:1017D000200ABDEEC00A10EE100A20809DF90120FB
:1017E000D1ED010A00EE102A4042B8EEC00A20EE08
:1017F000200ABDEEC00A10EE102A62809DF9022078
:10180000D1ED010A00EE102AB8EEC00A20EE200A3F
:10181000BDEEC00A10EE101AA180208038BD0A4922
:1018200010B50978012903D0022905D0002010BD88
:10183000FFF7B2FF012010BDFFF74FFF022010BDE0
:1018400000100240003001402400002040420F0000
:1018500048E13A3F8FC2753D8FC2F53DEC51383EAD
:101860008FC2753E00009042A3490844C0F38F2008
:1018700070472DE9F04F9A46DDE909B889460346DD
:10188000FFF7F2FFC5B200204FF0030E01218140A7
:1018900011EA090F28D0994E36F815400C4326F866
:1018A0001540DF6844000EFA04F6B7430BFA04FC57
:1018B00047EA0C07DF601F6802FA04FCB74347EAF7
:1018C0000C071F60012A01D0022A0DD15F6889B27E
:1018D0008F430AFA00F189B20F435F60996808FAF2
:1018E00004F4B14321439960401CC0B21028CDD309
:1018F000BDE8F08F00B5FFF7B7FF012181408048B8
:1019000002681143016000BDFCB51646DDE907C55C
:101910000C00074608D0FFF7EDFFCDE900C53246C1
:1019200021463846FFF7A5FFFCBD2DE9FC4F99463F
:10193000DDE90BB792460D00064622D0FFF7DAFF2D
:10194000002201214FF00F0C01FA02F028420DD0C5
:10195000D00806EB8003186A5407E40E0CFA04F86A
:1019600020EA080007FA04F420431862521C102AE7
:10197000EAD3CDE9009B5346022229463046FFF7C1
:1019800078FFBDE8FC8FF0B50E460546FFF76CFF0B
:1019900000225A49C4B24FF0010C03270CFA02F39B
:1019A00033420CD028684FEA420E07FA0EFE40EA96
:1019B0000E00286031F81400984321F81400521CDE
:1019C000D2B2102AEAD3F0BDF0B5002201250326D9
:1019D00005FA02F30B4205D00468570006FA07F334
:1019E0009C430460521CD2B2102AF1D3F0BDF0B572
:1019F00000220127032607FA02F33C460B4208D0D7
:101A00000568530006FA03FC25EA0C059C402543B3
:101A10000560521CD2B2102AEDD3F0BDF0B5002201
:101A20000125032605FA02F30B4205D0046857008E
:101A300006FA07F31C430460521CD2B2102AF1D3F9
:101A4000F0BDF0B5002201260324022706FA02F3B6
:101A50000B4209D00568530004FA03FC25EA0C0583
:101A600007FA03F31D430560521CD2B2102AEDD3CE
:101A7000F0BDF0B500230127032507FA03F40C425B
:101A800009D0C6685C0005FA04FC26EA0C0602FAD6
:101A900004F42643C6605B1CDBB2102BEDD3F0BD13
:101AA00041F48032C261C161C261C169C0697047DD
:101AB000002102E0491C89B240080128FAD80846F2
:101AC000704700B5FFF7D0FE012181400C48026845
:101AD0008A43026000BD00B5FFF7C6FE074931F832
:101AE000100000BD00B5FFF7BFFE044931F810003B
:101AF000C04380B200BD00000000FEBF60000020B7
:101B00003038024008B500F054F9FFF7BBF8FFF792
:101B10004DF9FFF703FD734D734C4FF4704B0128E3
:101B200006D0FFF7FBFC022808D0A5F800B0FEE7BE
:101B30004FF4A04028800421052004E04FF4204009
:101B4000288000210846FFF7A9FD21684FF4FA60BC
:101B50000091EFF3058111B34FF0E0210A69D20340
:101B600000D5401E0028F9D15E4C6FF0310AA41C4C
:101B7000A51F4FF40046A7144FF400584FF48049B6
:101B80005A48FFF74CFE594B0021B3F900003228A8
:101B900010DDB3F90210322907DD01210AE02168C6
:101BA000009A891A8142FAD3DEE7514501DA02210F
:101BB00000E00321D446604507DAB3F90210322968
:101BC0000DDC514517DB062118E0B3F90220322A5B
:101BD00009DD322801DD012110E0504501DA042140
:101BE0000CE007210AE0624508DA322801DD022113
:101BF00004E0504501DA052100E008210929BFD29F
:101C0000DFE801F0050812222B3549535E00A4F8E5
:101C100000B0B5E7296881F480412960296881F422
:101C200000512960268009E0296881F480412960FB
:101C3000296881F400412960A4F800802780C0F55C
:101C400096604FF4FA7122E0296881F4804129609E
:101C5000A4F8008027802680F1E7296881F480516C
:101C60002960296881F40051296049461AE02968F1
:101C700081F480512960296881F400412960A4F829
:101C80000090A4F800804FF4FA7100F59660484384
:101C900000F022F874E7296881F480512960A4F8E3
:101CA0000090414621802680EDE7286880F40050AE
:101CB0002860A4F8009027802680B3F90200BEE7D0
:101CC000286880F400402860A4F800902780A4F8D9
:101CD0000080B3F90200D6E7054909684843401E71
:101CE000FDD27047180C0240140000202C00002088
:101CF0001C0000207047FEE7FEE7FEE7FEE77047A6
:101D000070477047704710B5FEF790FF10BD000098
:101D10000CB50022544900920192086840F48030CA
:101D200008604FF4A043086800F400300190009868
:101D3000401C0090019810B900989842F3D10868AF
:101D4000800334D50120019047484030026842F0BA
:101D5000805202604548026842F4404202604248B4
:101D6000083002680260026842F4004202600268C1
:101D700042F4A0520260031F3D4A1A600A6842F012
:101D800080720A600A689201FCD53A4940F20572F5
:101D90000A60016821F003010160016841F002015D
:101DA00001600168C1F381010229FAD10CBD0192E1
:101DB0000CBD314810B5016841F4700101602A483A
:101DC000016841F001010160274A002108321160D9
:101DD00002682A4B1A400260031D294A1A600268F1
:101DE00022F48022026020480C300160FFF790FF4F
:101DF00021494FF000608039086010BD70B51A4D60
:101E0000083528681F4B204910F00C0004D01F4EE5
:101E1000042803D0082803D00B601BE00E6019E0F3
:101E2000114A121D1068C0F38054106800F03F0082
:101E300014B1B6FBF0F001E0B3FBF0F013681268E8
:101E4000C3F388135843C2F30142521C5200B0FB43
:101E5000F2F0086028680C4AC0F30310121D105CF1
:101E60000A68C2400A6070BD00380240007000403D
:101E700008544007003C024088ED00E0FFFFF6FEFA
:101E8000103000240024F4003400002040787D014C
:101E900070B5064600F056F8056806F10B0020F014
:101EA0000704B4429CBF002070BD2B466A68BAB1DB
:101EB0001068A04210D304F1080188423CBF50686A
:101EC000586007D35168101941601168091B0160FF
:101ED00058601460101D70BD13465268002AE7D187
:101EE0002146284600F036F80028DED170BD70B5D6
:101EF0000446051F00F026F80068002C14BF446853
:101F000070BD002C18BFAC423CBF20466468F8D3BB
:101F100001680A18AA4218BF456003D12A6805461D
:101F20001144016028684119A1421CBF6C6070BD5A
:101F30006168696021680844286070BD7047704717
:101F400070470000004870478000002070477047CD
:101F50007047704738B504460A4600206946AFF31B
:101F60000080002808BF38BD02460099204600F0D6
:101F70003FF8012038BD012000F054B8F8B5AFF3A8
:101F80000080054600200C46102000BF0646A81918
:101F9000A0420DD9324669460020AFF30080070009
:101FA00008BF00F03FF80098A04218BF0546C419CA
:101FB000FFF7C8FF05600746F01D20F0070046192F
:101FC000284600F00AF8B44208BFF8BDA21B31460B
:101FD0003868BDE8F84000F00BB800210160C0E9A6
:101FE00001107047102070470048704778000020AB
:101FF000034640688C46002818BF88423CBF034611
:102000004068F8D318681844884207D00CF10300E0
:1020100020F00700001D411A521A0146081D0A60EF
:10202000FFF765BF10B500F039F8BDE8104000F0CB
:102030002FB870477546FFF7D7FFAE4605006946D3
:10204000534620F00700854618B020B5FEF7FEF88D
:10205000BDE820404FF000064FF000074FF00008A9
:102060004FF0000B21F00701AC46ACE8C009ACE82A
:10207000C009ACE8C009ACE8C0098D46704710B58E
:102080000446AFF300802046BDE81040FEF7C9B813
:10209000002801D000F02AB87047000010B50128D0
:1020A00005D0002103A000F027F8012010BD09A1F0
:1020B000F8E7000053494752544D454D3A204F75BB
:1020C00074206F662068656170206D656D6F727930
:1020D000000000003A2048656170206D656D6F72E8
:1020E0007920636F727275707465640001491820FD
:1020F000ABBEFEE72600020070B505460C460A207E
:1021000000E06D1C00F011F835B128780028F8D1F6
:1021100002E0641C00F009F814B120780028F8D11E
:10212000BDE870400A20AFF3008008B569468DF81D
:1021300000000320ABBE08BD4FF04070E1EE100A76
:1021400070470000642100080000002048000000E3
:10215000C4010008AC2100084800002090060000DF
:10216000E001000800000000010203040102030472
:102170000607080900000000000000000000000041
:10218000000000000000000000000000000000004F
:102190000000000000000000007A030A00000000B8
:0C21A0000000000001020304060708090B
:040000050800018965
:00000001FF
